{
  "contractName": "Adder",
  "abi": [
    {
      "constant": false,
      "inputs": [
        {
          "name": "a",
          "type": "uint256"
        },
        {
          "name": "b",
          "type": "uint256"
        }
      ],
      "name": "add",
      "outputs": [
        {
          "name": "",
          "type": "uint256"
        }
      ],
      "payable": false,
      "stateMutability": "nonpayable",
      "type": "function"
    }
  ],
  "bytecode": "0x6060604052341561000f57600080fd5b60ba8061001d6000396000f300606060405260043610603f576000357c0100000000000000000000000000000000000000000000000000000000900463ffffffff168063771602f7146044575b600080fd5b3415604e57600080fd5b606b60048080359060200190919080359060200190919050506081565b6040518082815260200191505060405180910390f35b60008183019050929150505600a165627a7a72305820dd6b49758d6df561c30861ebb9cfb119b6ca42e50258b99567bf6b02e1807ee00029",
  "source": "pragma solidity ^0.4.17;\r\n\r\ncontract Adder {\r\n    function add(uint256 a, uint256 b) public returns (uint256) {\r\n        return a + b;\r\n    }\r\n}",
  "sourcePath": "/mnt/c/Users/Raketa/Documents/Repos/lab/contracts/test/valid/Adder.sol",
  "compiler": {
    "name": "solc",
    "version": "0.4.19+commit.c4cbbb05.Emscripten.clang"
  },
  "schemaVersion": "1.0.1",
  "updatedAt": "2018-03-12T17:35:03.803Z"
}