{
  "contractName": "Call",
  "abi": [
    {
      "constant": false,
      "inputs": [
        {
          "name": "a",
          "type": "address"
        },
        {
          "name": "gasAmount",
          "type": "uint256"
        }
      ],
      "name": "foo",
      "outputs": [
        {
          "name": "v",
          "type": "bool"
        }
      ],
      "payable": false,
      "stateMutability": "nonpayable",
      "type": "function"
    }
  ],
  "bytecode": "0x6060604052341561000f57600080fd5b60db8061001d6000396000f300606060405260043610603f576000357c0100000000000000000000000000000000000000000000000000000000900463ffffffff168063bd0d639f146044575b600080fd5b3415604e57600080fd5b6081600480803573ffffffffffffffffffffffffffffffffffffffff16906020019091908035906020019091905050609b565b604051808215151515815260200191505060405180910390f35b6000806000806000808787f19050929150505600a165627a7a7230582067dc16f24c69f4cffafebbbd906e3e4f9dc6491b5b389d8558f96ac57cfc41d90029",
  "source": "pragma solidity ^0.4.17;\r\n\r\ncontract Call {\r\n    function foo(address a, uint gasAmount) public returns (bool v) {\r\n        assembly {\r\n            v := call(gasAmount, a, 0, 0, 0, 0,0)\r\n        }\r\n    }\r\n}",
  "sourcePath": "/mnt/d/jakedoc/Projects/beakeros/contracts/test/invalid/Call.sol",
  "compiler": {
    "name": "solc",
    "version": "0.4.19+commit.c4cbbb05.Emscripten.clang"
  },
  "schemaVersion": "1.0.1",
  "updatedAt": "2018-03-20T11:55:40.309Z"
}