{
  "contractName": "Create",
  "abi": [
    {
      "constant": false,
      "inputs": [
        {
          "name": "value",
          "type": "bytes1"
        },
        {
          "name": "offset",
          "type": "bytes1"
        },
        {
          "name": "size",
          "type": "bytes1"
        }
      ],
      "name": "foo",
      "outputs": [],
      "payable": false,
      "stateMutability": "nonpayable",
      "type": "function"
    }
  ],
  "bytecode": "0x6060604052341561000f57600080fd5b6101128061001e6000396000f300606060405260043610603f576000357c0100000000000000000000000000000000000000000000000000000000900463ffffffff1680630e456e26146044575b600080fd5b3415604e57600080fd5b60da60048080357effffffffffffffffffffffffffffffffffffffffffffffffffffffffffffff19169060200190919080357effffffffffffffffffffffffffffffffffffffffffffffffffffffffffffff19169060200190919080357effffffffffffffffffffffffffffffffffffffffffffffffffffffffffffff191690602001909190505060dc565b005b808284f0505050505600a165627a7a72305820d84538df4c17fe3afa444c08bdd499987dbcdfe35e02ef6f7e15a1f85f2ab7070029",
  "source": "pragma solidity ^0.4.17;\n\ncontract Create {\n    function foo(byte value, byte offset, byte size) public {\n        assembly {\n            let x := create(value, offset, size)\n        }\n    }\n}\n",
  "sourcePath": "/mnt/c/Users/Raketa/Documents/Repos/lab/contracts/test/invalid/Create.sol",
  "compiler": {
    "name": "solc",
    "version": "0.4.19+commit.c4cbbb05.Emscripten.clang"
  },
  "schemaVersion": "1.0.1",
  "updatedAt": "2018-03-12T17:35:03.798Z"
}