{
  "contractName": "Divide",
  "abi": [
    {
      "constant": true,
      "inputs": [
        {
          "name": "a",
          "type": "uint256"
        },
        {
          "name": "b",
          "type": "uint256"
        }
      ],
      "name": "divide",
      "outputs": [
        {
          "name": "",
          "type": "uint256"
        }
      ],
      "payable": false,
      "stateMutability": "pure",
      "type": "function"
    }
  ],
  "bytecode": "0x6060604052341561000f57600080fd5b60c28061001d6000396000f300606060405260043610603f576000357c0100000000000000000000000000000000000000000000000000000000900463ffffffff168063f88e9fbf146044575b600080fd5b3415604e57600080fd5b606b60048080359060200190919080359060200190919050506081565b6040518082815260200191505060405180910390f35b60008183811515608d57fe5b049050929150505600a165627a7a723058205fe1541a432566a633f04418ad7568af55f02c7bff11e0e095ee2549ab037b790029",
  "source": "pragma solidity ^0.4.17;\r\n\r\ncontract Divide {\r\n    function divide(uint a, uint b) pure public returns (uint256) {\r\n        return a / b;\r\n    }\r\n}",
  "sourcePath": "/mnt/d/jakedoc/Projects/beakeros/contracts/test/valid/Divide.sol",
  "compiler": {
    "name": "solc",
    "version": "0.4.19+commit.c4cbbb05.Emscripten.clang"
  },
  "schemaVersion": "1.0.1",
  "updatedAt": "2018-03-20T11:55:40.316Z"
}