{
  "contractName": "Factory",
  "abi": [
    {
      "constant": true,
      "inputs": [
        {
          "name": "",
          "type": "bytes1"
        }
      ],
      "name": "opCodes",
      "outputs": [
        {
          "name": "",
          "type": "uint8"
        }
      ],
      "payable": false,
      "stateMutability": "view",
      "type": "function"
    },
    {
      "inputs": [],
      "payable": false,
      "stateMutability": "nonpayable",
      "type": "constructor"
    },
    {
      "payable": true,
      "stateMutability": "payable",
      "type": "fallback"
    },
    {
      "anonymous": false,
      "inputs": [
        {
          "indexed": false,
          "name": "sender",
          "type": "address"
        },
        {
          "indexed": false,
          "name": "amount",
          "type": "uint256"
        }
      ],
      "name": "LogFundsReceived",
      "type": "event"
    },
    {
      "anonymous": false,
      "inputs": [
        {
          "indexed": false,
          "name": "receiver",
          "type": "address"
        },
        {
          "indexed": false,
          "name": "amount",
          "type": "uint256"
        }
      ],
      "name": "LogFundsSent",
      "type": "event"
    },
    {
      "constant": true,
      "inputs": [
        {
          "name": "oCode",
          "type": "bytes"
        }
      ],
      "name": "validate",
      "outputs": [
        {
          "name": "valid",
          "type": "bool"
        }
      ],
      "payable": false,
      "stateMutability": "view",
      "type": "function"
    },
    {
      "constant": true,
      "inputs": [
        {
          "name": "oCode",
          "type": "bytes"
        }
      ],
      "name": "codeLength",
      "outputs": [
        {
          "name": "len",
          "type": "uint256"
        }
      ],
      "payable": false,
      "stateMutability": "pure",
      "type": "function"
    },
    {
      "constant": true,
      "inputs": [
        {
          "name": "oCode",
          "type": "bytes"
        }
      ],
      "name": "codePosition",
      "outputs": [
        {
          "name": "code",
          "type": "uint256"
        }
      ],
      "payable": false,
      "stateMutability": "pure",
      "type": "function"
    },
    {
      "constant": false,
      "inputs": [
        {
          "name": "oCode",
          "type": "bytes"
        }
      ],
      "name": "create",
      "outputs": [
        {
          "name": "d",
          "type": "address"
        }
      ],
      "payable": false,
      "stateMutability": "nonpayable",
      "type": "function"
    }
  ],
  "bytecode": "0x6060604052341561000f57600080fd5b600160008060607f0100000000000000000000000000000000000000000000000000000000000000027effffffffffffffffffffffffffffffffffffffffffffffffffffffffffffff1916815260200190815260200160002060006101000a81548160ff021916908360ff160217905550600260008060617f0100000000000000000000000000000000000000000000000000000000000000027effffffffffffffffffffffffffffffffffffffffffffffffffffffffffffff1916815260200190815260200160002060006101000a81548160ff021916908360ff160217905550600360008060627f0100000000000000000000000000000000000000000000000000000000000000027effffffffffffffffffffffffffffffffffffffffffffffffffffffffffffff1916815260200190815260200160002060006101000a81548160ff021916908360ff160217905550600460008060637f0100000000000000000000000000000000000000000000000000000000000000027effffffffffffffffffffffffffffffffffffffffffffffffffffffffffffff1916815260200190815260200160002060006101000a81548160ff021916908360ff160217905550600560008060647f0100000000000000000000000000000000000000000000000000000000000000027effffffffffffffffffffffffffffffffffffffffffffffffffffffffffffff1916815260200190815260200160002060006101000a81548160ff021916908360ff160217905550600660008060657f0100000000000000000000000000000000000000000000000000000000000000027effffffffffffffffffffffffffffffffffffffffffffffffffffffffffffff1916815260200190815260200160002060006101000a81548160ff021916908360ff160217905550600760008060667f0100000000000000000000000000000000000000000000000000000000000000027effffffffffffffffffffffffffffffffffffffffffffffffffffffffffffff1916815260200190815260200160002060006101000a81548160ff021916908360ff160217905550600860008060677f0100000000000000000000000000000000000000000000000000000000000000027effffffffffffffffffffffffffffffffffffffffffffffffffffffffffffff1916815260200190815260200160002060006101000a81548160ff021916908360ff160217905550600960008060687f0100000000000000000000000000000000000000000000000000000000000000027effffffffffffffffffffffffffffffffffffffffffffffffffffffffffffff1916815260200190815260200160002060006101000a81548160ff021916908360ff160217905550600a60008060697f0100000000000000000000000000000000000000000000000000000000000000027effffffffffffffffffffffffffffffffffffffffffffffffffffffffffffff1916815260200190815260200160002060006101000a81548160ff021916908360ff160217905550600b600080606a7f0100000000000000000000000000000000000000000000000000000000000000027effffffffffffffffffffffffffffffffffffffffffffffffffffffffffffff1916815260200190815260200160002060006101000a81548160ff021916908360ff160217905550600c600080606b7f0100000000000000000000000000000000000000000000000000000000000000027effffffffffffffffffffffffffffffffffffffffffffffffffffffffffffff1916815260200190815260200160002060006101000a81548160ff021916908360ff160217905550600d600080606c7f0100000000000000000000000000000000000000000000000000000000000000027effffffffffffffffffffffffffffffffffffffffffffffffffffffffffffff1916815260200190815260200160002060006101000a81548160ff021916908360ff160217905550600e600080606d7f0100000000000000000000000000000000000000000000000000000000000000027effffffffffffffffffffffffffffffffffffffffffffffffffffffffffffff1916815260200190815260200160002060006101000a81548160ff021916908360ff160217905550600f600080606e7f0100000000000000000000000000000000000000000000000000000000000000027effffffffffffffffffffffffffffffffffffffffffffffffffffffffffffff1916815260200190815260200160002060006101000a81548160ff021916908360ff1602179055506010600080606f7f0100000000000000000000000000000000000000000000000000000000000000027effffffffffffffffffffffffffffffffffffffffffffffffffffffffffffff1916815260200190815260200160002060006101000a81548160ff021916908360ff160217905550601160008060707f0100000000000000000000000000000000000000000000000000000000000000027effffffffffffffffffffffffffffffffffffffffffffffffffffffffffffff1916815260200190815260200160002060006101000a81548160ff021916908360ff160217905550601260008060717f0100000000000000000000000000000000000000000000000000000000000000027effffffffffffffffffffffffffffffffffffffffffffffffffffffffffffff1916815260200190815260200160002060006101000a81548160ff021916908360ff160217905550601360008060727f0100000000000000000000000000000000000000000000000000000000000000027effffffffffffffffffffffffffffffffffffffffffffffffffffffffffffff1916815260200190815260200160002060006101000a81548160ff021916908360ff160217905550601460008060737f0100000000000000000000000000000000000000000000000000000000000000027effffffffffffffffffffffffffffffffffffffffffffffffffffffffffffff1916815260200190815260200160002060006101000a81548160ff021916908360ff160217905550601560008060747f0100000000000000000000000000000000000000000000000000000000000000027effffffffffffffffffffffffffffffffffffffffffffffffffffffffffffff1916815260200190815260200160002060006101000a81548160ff021916908360ff160217905550601660008060757f0100000000000000000000000000000000000000000000000000000000000000027effffffffffffffffffffffffffffffffffffffffffffffffffffffffffffff1916815260200190815260200160002060006101000a81548160ff021916908360ff160217905550601760008060767f0100000000000000000000000000000000000000000000000000000000000000027effffffffffffffffffffffffffffffffffffffffffffffffffffffffffffff1916815260200190815260200160002060006101000a81548160ff021916908360ff160217905550601860008060777f0100000000000000000000000000000000000000000000000000000000000000027effffffffffffffffffffffffffffffffffffffffffffffffffffffffffffff1916815260200190815260200160002060006101000a81548160ff021916908360ff160217905550601960008060787f0100000000000000000000000000000000000000000000000000000000000000027effffffffffffffffffffffffffffffffffffffffffffffffffffffffffffff1916815260200190815260200160002060006101000a81548160ff021916908360ff160217905550601a60008060797f0100000000000000000000000000000000000000000000000000000000000000027effffffffffffffffffffffffffffffffffffffffffffffffffffffffffffff1916815260200190815260200160002060006101000a81548160ff021916908360ff160217905550601b600080607a7f0100000000000000000000000000000000000000000000000000000000000000027effffffffffffffffffffffffffffffffffffffffffffffffffffffffffffff1916815260200190815260200160002060006101000a81548160ff021916908360ff160217905550601c600080607b7f0100000000000000000000000000000000000000000000000000000000000000027effffffffffffffffffffffffffffffffffffffffffffffffffffffffffffff1916815260200190815260200160002060006101000a81548160ff021916908360ff160217905550601d600080607c7f0100000000000000000000000000000000000000000000000000000000000000027effffffffffffffffffffffffffffffffffffffffffffffffffffffffffffff1916815260200190815260200160002060006101000a81548160ff021916908360ff160217905550601e600080607d7f0100000000000000000000000000000000000000000000000000000000000000027effffffffffffffffffffffffffffffffffffffffffffffffffffffffffffff1916815260200190815260200160002060006101000a81548160ff021916908360ff160217905550601f600080607e7f0100000000000000000000000000000000000000000000000000000000000000027effffffffffffffffffffffffffffffffffffffffffffffffffffffffffffff1916815260200190815260200160002060006101000a81548160ff021916908360ff1602179055506020600080607f7f0100000000000000000000000000000000000000000000000000000000000000027effffffffffffffffffffffffffffffffffffffffffffffffffffffffffffff1916815260200190815260200160002060006101000a81548160ff021916908360ff16021790555061062f80610e3e6000396000f30060606040526004361061006d576000357c0100000000000000000000000000000000000000000000000000000000900463ffffffff1680630866a87d146100da578063087536ec14610139578063c16e50ef146101aa578063cf5ba53f1461021f578063dfe43992146102bc575b7fafc7c22656214f820dd5d5d53d4e1a42b878f2fe22f8523d33e095602edff9223334604051808373ffffffffffffffffffffffffffffffffffffffff1673ffffffffffffffffffffffffffffffffffffffff1681526020018281526020019250505060405180910390a1005b34156100e557600080fd5b61011d60048080357effffffffffffffffffffffffffffffffffffffffffffffffffffffffffffff191690602001909190505061032d565b604051808260ff1660ff16815260200191505060405180910390f35b341561014457600080fd5b610194600480803590602001908201803590602001908080601f0160208091040260200160405190810160405280939291908181526020018383808284378201915050505050509190505061034d565b6040518082815260200191505060405180910390f35b34156101b557600080fd5b610205600480803590602001908201803590602001908080601f01602080910402602001604051908101604052809392919081815260200183838082843782019150505050505091905050610358565b604051808215151515815260200191505060405180910390f35b341561022a57600080fd5b61027a600480803590602001908201803590602001908080601f016020809104026020016040519081016040528093929190818152602001838380828437820191505050505050919050506105db565b604051808273ffffffffffffffffffffffffffffffffffffffff1673ffffffffffffffffffffffffffffffffffffffff16815260200191505060405180910390f35b34156102c757600080fd5b610317600480803590602001908201803590602001908080601f016020809104026020016040519081016040528093929190818152602001838380828437820191505050505050919050506105f3565b6040518082815260200191505060405180910390f35b60006020528060005260406000206000915054906101000a900460ff1681565b600081519050919050565b60008060008091505b83518210156105cf57838281518110151561037857fe5b9060200101517f010000000000000000000000000000000000000000000000000000000000000090047f010000000000000000000000000000000000000000000000000000000000000002905060f07f010000000000000000000000000000000000000000000000000000000000000002817effffffffffffffffffffffffffffffffffffffffffffffffffffffffffffff1916148061045c575060f17f010000000000000000000000000000000000000000000000000000000000000002817effffffffffffffffffffffffffffffffffffffffffffffffffffffffffffff1916145b806104ab575060f27f010000000000000000000000000000000000000000000000000000000000000002817effffffffffffffffffffffffffffffffffffffffffffffffffffffffffffff1916145b806104fa575060f47f010000000000000000000000000000000000000000000000000000000000000002817effffffffffffffffffffffffffffffffffffffffffffffffffffffffffffff1916145b80610549575060ff7f010000000000000000000000000000000000000000000000000000000000000002817effffffffffffffffffffffffffffffffffffffffffffffffffffffffffffff1916145b1561055757600092506105d4565b600080827effffffffffffffffffffffffffffffffffffffffffffffffffffffffffffff19167effffffffffffffffffffffffffffffffffffffffffffffffffffffffffffff1916815260200190815260200160002060009054906101000a900460ff1660ff16820191508180600101925050610361565b600192505b5050919050565b6000815160208301818101816000f092505050919050565b60008151600083019150509190505600a165627a7a723058209a65f75659080d6beeee2fc8420533103c6ef6cc2a3bf525628da87757fa38920029",
  "source": "pragma solidity ^0.4.17;\r\n\r\ncontract Factory {\r\n\r\n    /*opCode -> jump size*/\r\n    mapping(byte => uint8) public opCodes;\r\n    \r\n    event LogFundsReceived(address sender, uint amount);\r\n    event LogFundsSent(address receiver, uint amount);\r\n\r\n    function() payable public {\r\n        LogFundsReceived(msg.sender, msg.value);\r\n    }\r\n    \r\n    function Factory() public {\r\n        /* PUSH opCodes */\r\n        // TODO: replace with code\r\n        opCodes[0x60] = 1;  opCodes[0x61] = 2;  opCodes[0x62] = 3;  opCodes[0x63] = 4;\r\n        opCodes[0x64] = 5;  opCodes[0x65] = 6;  opCodes[0x66] = 7;  opCodes[0x67] = 8;\r\n        opCodes[0x68] = 9;  opCodes[0x69] = 10; opCodes[0x6a] = 11; opCodes[0x6b] = 12;\r\n        opCodes[0x6c] = 13; opCodes[0x6d] = 14; opCodes[0x6e] = 15; opCodes[0x6f] = 16;\r\n        opCodes[0x70] = 17; opCodes[0x71] = 18; opCodes[0x72] = 19; opCodes[0x73] = 20;\r\n        opCodes[0x74] = 21; opCodes[0x75] = 22; opCodes[0x76] = 23; opCodes[0x77] = 24;\r\n        opCodes[0x78] = 25; opCodes[0x79] = 26; opCodes[0x7a] = 27; opCodes[0x7b] = 28;\r\n        opCodes[0x7c] = 29; opCodes[0x7d] = 30; opCodes[0x7e] = 31; opCodes[0x7f] = 32;\r\n    }\r\n\r\n    function validate(bytes oCode) public view returns (bool valid) {\r\n        for (uint256 i = 0; i < oCode.length; i ++) {\r\n            byte ins = oCode[i];\r\n\r\n            if (ins == 0xf0 || // CREATE\r\n                ins == 0xf1 || // CALL\r\n                ins == 0xf2 || // CALLCODE\r\n                ins == 0xf4 || // DELEGATECALL\r\n                ins == 0xff)   // SUICIDE\r\n            {\r\n                return false;\r\n            }\r\n\r\n            i = i + opCodes[ins];\r\n        }\r\n        return true;\r\n    }\r\n\r\n    function codeLength(bytes oCode) pure public returns (uint len) {\r\n        assembly {\r\n            // Get Length\r\n            len := mload(oCode)\r\n        }\r\n    }\r\n\r\n    function codePosition(bytes oCode) pure public returns (uint code) {\r\n        assembly {\r\n            // Get Length\r\n            let len := mload(oCode)\r\n            // Get Code\r\n            code := add(oCode, 0x00)\r\n        }\r\n    }\r\n\r\n    // As 'createAndPay', but will pay no gas into the contract.\r\n    // Deploy to Contract\r\n    // Argument #1: The name (key) of the pocedure.\r\n    // Argument #2: The amount of gas to be payed into the new contract\r\n    //      on creation. Generally we do not want to do that, as we\r\n    //      don't want contracts to hold gas.\r\n    // Argument #3: The position of start of the code with an additional\r\n    //      offset (as determined above).\r\n    // Argument #4: The position of the end of the code\r\n    //      (start + length).\r\n    // Returns the address of the new contract. If gas is paid into the\r\n    // new contract, but the factory doesn't hold enough gas, the null\r\n    // address is returned.\r\n    function create(bytes oCode) public returns (address d) {\r\n        assembly {\r\n            // Get length of code\r\n            let len := mload(oCode)\r\n            // Get position of code.\r\n            let code := add(oCode, 0x20)\r\n\r\n            d := create(0, code, add(code, len))\r\n        }\r\n    }\r\n}\r\n",
  "sourcePath": "/mnt/d/jakedoc/Projects/beakeros/contracts/Factory.sol",
  "compiler": {
    "name": "solc",
    "version": "0.4.19+commit.c4cbbb05.Emscripten.clang"
  },
  "schemaVersion": "1.0.1",
  "updatedAt": "2018-03-20T11:55:40.302Z"
}