{
  "contractName": "Kernel",
  "abi": [
    {
      "constant": true,
      "inputs": [
        {
          "name": "",
          "type": "bytes1"
        }
      ],
      "name": "opCodes",
      "outputs": [
        {
          "name": "",
          "type": "uint8"
        }
      ],
      "payable": false,
      "stateMutability": "view",
      "type": "function"
    },
    {
      "constant": true,
      "inputs": [
        {
          "name": "oCode",
          "type": "bytes"
        }
      ],
      "name": "codeLength",
      "outputs": [
        {
          "name": "len",
          "type": "uint256"
        }
      ],
      "payable": false,
      "stateMutability": "pure",
      "type": "function"
    },
    {
      "constant": true,
      "inputs": [
        {
          "name": "oCode",
          "type": "bytes"
        }
      ],
      "name": "validate",
      "outputs": [
        {
          "name": "valid",
          "type": "bool"
        }
      ],
      "payable": false,
      "stateMutability": "view",
      "type": "function"
    },
    {
      "constant": false,
      "inputs": [
        {
          "name": "oCode",
          "type": "bytes"
        }
      ],
      "name": "create",
      "outputs": [
        {
          "name": "d",
          "type": "address"
        }
      ],
      "payable": false,
      "stateMutability": "nonpayable",
      "type": "function"
    },
    {
      "constant": true,
      "inputs": [
        {
          "name": "oCode",
          "type": "bytes"
        }
      ],
      "name": "codePosition",
      "outputs": [
        {
          "name": "code",
          "type": "uint256"
        }
      ],
      "payable": false,
      "stateMutability": "pure",
      "type": "function"
    },
    {
      "payable": true,
      "stateMutability": "payable",
      "type": "fallback"
    },
    {
      "anonymous": false,
      "inputs": [
        {
          "indexed": false,
          "name": "message",
          "type": "string"
        }
      ],
      "name": "KernelLog",
      "type": "event"
    },
    {
      "anonymous": false,
      "inputs": [
        {
          "indexed": false,
          "name": "sender",
          "type": "address"
        },
        {
          "indexed": false,
          "name": "amount",
          "type": "uint256"
        }
      ],
      "name": "LogFundsReceived",
      "type": "event"
    },
    {
      "anonymous": false,
      "inputs": [
        {
          "indexed": false,
          "name": "receiver",
          "type": "address"
        },
        {
          "indexed": false,
          "name": "amount",
          "type": "uint256"
        }
      ],
      "name": "LogFundsSent",
      "type": "event"
    },
    {
      "constant": false,
      "inputs": [
        {
          "name": "name",
          "type": "bytes32"
        },
        {
          "name": "oCode",
          "type": "bytes"
        }
      ],
      "name": "createProcedure",
      "outputs": [
        {
          "name": "err",
          "type": "uint8"
        },
        {
          "name": "procedureAddress",
          "type": "address"
        }
      ],
      "payable": false,
      "stateMutability": "nonpayable",
      "type": "function"
    },
    {
      "constant": false,
      "inputs": [
        {
          "name": "name",
          "type": "bytes32"
        }
      ],
      "name": "deleteProcedure",
      "outputs": [
        {
          "name": "err",
          "type": "uint8"
        },
        {
          "name": "procedureAddress",
          "type": "address"
        }
      ],
      "payable": false,
      "stateMutability": "nonpayable",
      "type": "function"
    },
    {
      "constant": true,
      "inputs": [],
      "name": "listProcedures",
      "outputs": [
        {
          "name": "",
          "type": "bytes32[]"
        }
      ],
      "payable": false,
      "stateMutability": "view",
      "type": "function"
    },
    {
      "constant": true,
      "inputs": [
        {
          "name": "name",
          "type": "bytes32"
        }
      ],
      "name": "getProcedure",
      "outputs": [
        {
          "name": "",
          "type": "address"
        }
      ],
      "payable": false,
      "stateMutability": "view",
      "type": "function"
    },
    {
      "constant": false,
      "inputs": [
        {
          "name": "name",
          "type": "bytes32"
        },
        {
          "name": "fselector",
          "type": "string"
        },
        {
          "name": "payload",
          "type": "bytes"
        }
      ],
      "name": "executeProcedure",
      "outputs": [
        {
          "name": "err",
          "type": "uint8"
        },
        {
          "name": "retVal",
          "type": "uint256"
        }
      ],
      "payable": false,
      "stateMutability": "nonpayable",
      "type": "function"
    }
  ],
  "bytecode": "0x6060604052600160008060607f0100000000000000000000000000000000000000000000000000000000000000027effffffffffffffffffffffffffffffffffffffffffffffffffffffffffffff1916815260200190815260200160002060006101000a81548160ff021916908360ff160217905550600260008060617f0100000000000000000000000000000000000000000000000000000000000000027effffffffffffffffffffffffffffffffffffffffffffffffffffffffffffff1916815260200190815260200160002060006101000a81548160ff021916908360ff160217905550600360008060627f0100000000000000000000000000000000000000000000000000000000000000027effffffffffffffffffffffffffffffffffffffffffffffffffffffffffffff1916815260200190815260200160002060006101000a81548160ff021916908360ff160217905550600460008060637f0100000000000000000000000000000000000000000000000000000000000000027effffffffffffffffffffffffffffffffffffffffffffffffffffffffffffff1916815260200190815260200160002060006101000a81548160ff021916908360ff160217905550600560008060647f0100000000000000000000000000000000000000000000000000000000000000027effffffffffffffffffffffffffffffffffffffffffffffffffffffffffffff1916815260200190815260200160002060006101000a81548160ff021916908360ff160217905550600660008060657f0100000000000000000000000000000000000000000000000000000000000000027effffffffffffffffffffffffffffffffffffffffffffffffffffffffffffff1916815260200190815260200160002060006101000a81548160ff021916908360ff160217905550600760008060667f0100000000000000000000000000000000000000000000000000000000000000027effffffffffffffffffffffffffffffffffffffffffffffffffffffffffffff1916815260200190815260200160002060006101000a81548160ff021916908360ff160217905550600860008060677f0100000000000000000000000000000000000000000000000000000000000000027effffffffffffffffffffffffffffffffffffffffffffffffffffffffffffff1916815260200190815260200160002060006101000a81548160ff021916908360ff160217905550600960008060687f0100000000000000000000000000000000000000000000000000000000000000027effffffffffffffffffffffffffffffffffffffffffffffffffffffffffffff1916815260200190815260200160002060006101000a81548160ff021916908360ff160217905550600a60008060697f0100000000000000000000000000000000000000000000000000000000000000027effffffffffffffffffffffffffffffffffffffffffffffffffffffffffffff1916815260200190815260200160002060006101000a81548160ff021916908360ff160217905550600b600080606a7f0100000000000000000000000000000000000000000000000000000000000000027effffffffffffffffffffffffffffffffffffffffffffffffffffffffffffff1916815260200190815260200160002060006101000a81548160ff021916908360ff160217905550600c600080606b7f0100000000000000000000000000000000000000000000000000000000000000027effffffffffffffffffffffffffffffffffffffffffffffffffffffffffffff1916815260200190815260200160002060006101000a81548160ff021916908360ff160217905550600d600080606c7f0100000000000000000000000000000000000000000000000000000000000000027effffffffffffffffffffffffffffffffffffffffffffffffffffffffffffff1916815260200190815260200160002060006101000a81548160ff021916908360ff160217905550600e600080606d7f0100000000000000000000000000000000000000000000000000000000000000027effffffffffffffffffffffffffffffffffffffffffffffffffffffffffffff1916815260200190815260200160002060006101000a81548160ff021916908360ff160217905550600f600080606e7f0100000000000000000000000000000000000000000000000000000000000000027effffffffffffffffffffffffffffffffffffffffffffffffffffffffffffff1916815260200190815260200160002060006101000a81548160ff021916908360ff1602179055506010600080606f7f0100000000000000000000000000000000000000000000000000000000000000027effffffffffffffffffffffffffffffffffffffffffffffffffffffffffffff1916815260200190815260200160002060006101000a81548160ff021916908360ff160217905550601160008060707f0100000000000000000000000000000000000000000000000000000000000000027effffffffffffffffffffffffffffffffffffffffffffffffffffffffffffff1916815260200190815260200160002060006101000a81548160ff021916908360ff160217905550601260008060717f0100000000000000000000000000000000000000000000000000000000000000027effffffffffffffffffffffffffffffffffffffffffffffffffffffffffffff1916815260200190815260200160002060006101000a81548160ff021916908360ff160217905550601360008060727f0100000000000000000000000000000000000000000000000000000000000000027effffffffffffffffffffffffffffffffffffffffffffffffffffffffffffff1916815260200190815260200160002060006101000a81548160ff021916908360ff160217905550601460008060737f0100000000000000000000000000000000000000000000000000000000000000027effffffffffffffffffffffffffffffffffffffffffffffffffffffffffffff1916815260200190815260200160002060006101000a81548160ff021916908360ff160217905550601560008060747f0100000000000000000000000000000000000000000000000000000000000000027effffffffffffffffffffffffffffffffffffffffffffffffffffffffffffff1916815260200190815260200160002060006101000a81548160ff021916908360ff160217905550601660008060757f0100000000000000000000000000000000000000000000000000000000000000027effffffffffffffffffffffffffffffffffffffffffffffffffffffffffffff1916815260200190815260200160002060006101000a81548160ff021916908360ff160217905550601760008060767f0100000000000000000000000000000000000000000000000000000000000000027effffffffffffffffffffffffffffffffffffffffffffffffffffffffffffff1916815260200190815260200160002060006101000a81548160ff021916908360ff160217905550601860008060777f0100000000000000000000000000000000000000000000000000000000000000027effffffffffffffffffffffffffffffffffffffffffffffffffffffffffffff1916815260200190815260200160002060006101000a81548160ff021916908360ff160217905550601960008060787f0100000000000000000000000000000000000000000000000000000000000000027effffffffffffffffffffffffffffffffffffffffffffffffffffffffffffff1916815260200190815260200160002060006101000a81548160ff021916908360ff160217905550601a60008060797f0100000000000000000000000000000000000000000000000000000000000000027effffffffffffffffffffffffffffffffffffffffffffffffffffffffffffff1916815260200190815260200160002060006101000a81548160ff021916908360ff160217905550601b600080607a7f0100000000000000000000000000000000000000000000000000000000000000027effffffffffffffffffffffffffffffffffffffffffffffffffffffffffffff1916815260200190815260200160002060006101000a81548160ff021916908360ff160217905550601c600080607b7f0100000000000000000000000000000000000000000000000000000000000000027effffffffffffffffffffffffffffffffffffffffffffffffffffffffffffff1916815260200190815260200160002060006101000a81548160ff021916908360ff160217905550601d600080607c7f0100000000000000000000000000000000000000000000000000000000000000027effffffffffffffffffffffffffffffffffffffffffffffffffffffffffffff1916815260200190815260200160002060006101000a81548160ff021916908360ff160217905550601e600080607d7f0100000000000000000000000000000000000000000000000000000000000000027effffffffffffffffffffffffffffffffffffffffffffffffffffffffffffff1916815260200190815260200160002060006101000a81548160ff021916908360ff160217905550601f600080607e7f0100000000000000000000000000000000000000000000000000000000000000027effffffffffffffffffffffffffffffffffffffffffffffffffffffffffffff1916815260200190815260200160002060006101000a81548160ff021916908360ff1602179055506020600080607f7f0100000000000000000000000000000000000000000000000000000000000000027effffffffffffffffffffffffffffffffffffffffffffffffffffffffffffff1916815260200190815260200160002060006101000a81548160ff021916908360ff160217905550610f1080610e336000396000f3006060604052600436106100a4576000357c0100000000000000000000000000000000000000000000000000000000900463ffffffff1680630866a87d14610111578063087536ec146101705780632bfc3454146101e15780633ab822a1146102485780634532fa31146102ff5780637e7e884114610373578063c16e50ef146103dd578063c8f9b6bb14610452578063cf5ba53f14610520578063dfe43992146105bd575b7fafc7c22656214f820dd5d5d53d4e1a42b878f2fe22f8523d33e095602edff9223334604051808373ffffffffffffffffffffffffffffffffffffffff1673ffffffffffffffffffffffffffffffffffffffff1681526020018281526020019250505060405180910390a1005b341561011c57600080fd5b61015460048080357effffffffffffffffffffffffffffffffffffffffffffffffffffffffffffff191690602001909190505061062e565b604051808260ff1660ff16815260200191505060405180910390f35b341561017b57600080fd5b6101cb600480803590602001908201803590602001908080601f0160208091040260200160405190810160405280939291908181526020018383808284378201915050505050509190505061064e565b6040518082815260200191505060405180910390f35b34156101ec57600080fd5b610206600480803560001916906020019091905050610659565b604051808273ffffffffffffffffffffffffffffffffffffffff1673ffffffffffffffffffffffffffffffffffffffff16815260200191505060405180910390f35b341561025357600080fd5b6102b060048080356000191690602001909190803590602001908201803590602001908080601f01602080910402602001604051908101604052809392919081815260200183838082843782019150505050505091905050610676565b604051808360ff1660ff1681526020018273ffffffffffffffffffffffffffffffffffffffff1673ffffffffffffffffffffffffffffffffffffffff1681526020019250505060405180910390f35b341561030a57600080fd5b6103246004808035600019169060200190919050506106e3565b604051808360ff1660ff1681526020018273ffffffffffffffffffffffffffffffffffffffff1673ffffffffffffffffffffffffffffffffffffffff1681526020019250505060405180910390f35b341561037e57600080fd5b6103866107ad565b6040518080602001828103825283818151815260200191508051906020019060200280838360005b838110156103c95780820151818401526020810190506103ae565b505050509050019250505060405180910390f35b34156103e857600080fd5b610438600480803590602001908201803590602001908080601f01602080910402602001604051908101604052809392919081815260200183838082843782019150505050505091905050610811565b604051808215151515815260200191505060405180910390f35b341561045d57600080fd5b6104fd60048080356000191690602001909190803590602001908201803590602001908080601f0160208091040260200160405190810160405280939291908181526020018383808284378201915050505050509190803590602001908201803590602001908080601f01602080910402602001604051908101604052809392919081815260200183838082843782019150505050505091905050610a94565b604051808360ff1660ff1681526020018281526020019250505060405180910390f35b341561052b57600080fd5b61057b600480803590602001908201803590602001908080601f01602080910402602001604051908101604052809392919081815260200183838082843782019150505050505091905050610ba6565b604051808273ffffffffffffffffffffffffffffffffffffffff1673ffffffffffffffffffffffffffffffffffffffff16815260200191505060405180910390f35b34156105c857600080fd5b610618600480803590602001908201803590602001908080601f01602080910402602001604051908101604052809392919081815260200183838082843782019150505050505091905050610bbe565b6040518082815260200191505060405180910390f35b60006020528060005260406000206000915054906101000a900460ff1681565b600081519050919050565b600061066f826001610bce90919063ffffffff16565b9050919050565b6000806000806001028560001916141561069357600192506106db565b6106a7856001610c1990919063ffffffff16565b905080156106b857600392506106db565b6106c184610ba6565b91506106d985836001610c469092919063ffffffff16565b505b509250929050565b6000806000807f01000000000000000000000000000000000000000000000000000000000000000284600060208110151561071a57fe5b1a7f0100000000000000000000000000000000000000000000000000000000000000027effffffffffffffffffffffffffffffffffffffffffffffffffffffffffffff1916141561076e57600192506107a7565b610782846001610bce90919063ffffffff16565b9150610798846001610d1790919063ffffffff16565b90508015156107a657600292505b5b50915091565b6107b5610e7f565b6001800180548060200260200160405190810160405280929190818152602001828054801561080757602002820191906000526020600020905b815460001916815260200190600101908083116107ef575b5050505050905090565b60008060008091505b8351821015610a8857838281518110151561083157fe5b9060200101517f010000000000000000000000000000000000000000000000000000000000000090047f010000000000000000000000000000000000000000000000000000000000000002905060f07f010000000000000000000000000000000000000000000000000000000000000002817effffffffffffffffffffffffffffffffffffffffffffffffffffffffffffff19161480610915575060f17f010000000000000000000000000000000000000000000000000000000000000002817effffffffffffffffffffffffffffffffffffffffffffffffffffffffffffff1916145b80610964575060f27f010000000000000000000000000000000000000000000000000000000000000002817effffffffffffffffffffffffffffffffffffffffffffffffffffffffffffff1916145b806109b3575060f47f010000000000000000000000000000000000000000000000000000000000000002817effffffffffffffffffffffffffffffffffffffffffffffffffffffffffffff1916145b80610a02575060ff7f010000000000000000000000000000000000000000000000000000000000000002817effffffffffffffffffffffffffffffffffffffffffffffffffffffffffffff1916145b15610a105760009250610a8d565b600080827effffffffffffffffffffffffffffffffffffffffffffffffffffffffffffff19167effffffffffffffffffffffffffffffffffffffffffffffffffffffffffffff1916815260200190815260200160002060009054906101000a900460ff1660ff1682019150818060010192505061081a565b600192505b5050919050565b6000806000806000807f010000000000000000000000000000000000000000000000000000000000000002886000602081101515610ace57fe5b1a7f0100000000000000000000000000000000000000000000000000000000000000027effffffffffffffffffffffffffffffffffffffffffffffffffffffffffffff19161415610b225760019450610b9b565b610b36886001610c1990919063ffffffff16565b9250821515610b485760039450610b9b565b610b5c886001610bce90919063ffffffff16565b9150600090506040516020810160405287516020890120815280600460606000808284868a6113885a03f495505050505050801515610b9a57600494505b5b505050935093915050565b6000815160208301818101816000f092505050919050565b6000815160008301915050919050565b6000826000016000836000191660001916815260200190815260200160002060010160009054906101000a900473ffffffffffffffffffffffffffffffffffffffff16905092915050565b60008083600001600084600019166000191681526020019081526020016000206000015411905092915050565b60008084600001600085600019166000191681526020019081526020016000209050828160010160006101000a81548173ffffffffffffffffffffffffffffffffffffffff021916908373ffffffffffffffffffffffffffffffffffffffff160217905550600081600001541115610cc15760019150610d0f565b8460010180546001019081610cd69190610e93565b816000018190555083856001016001836000015403815481101515610cf757fe5b90600052602060002090018160001916905550600091505b509392505050565b60008083600001600084600019166000191681526020019081526020016000209050600081600001541415610d4f5760009150610e78565b83600101805490508160000154111515610e77578060000154846000016000866001016001886001018054905003815481101515610d8957fe5b9060005260206000209001546000191660001916815260200190815260200160002060000181905550836001016001856001018054905003815481101515610dcd57fe5b906000526020600020900154846001016001836000015403815481101515610df157fe5b9060005260206000209001816000191690555060018460010181818054905003915081610e1e9190610e93565b5083600001600084600019166000191681526020019081526020016000206000808201600090556001820160006101000a81549073ffffffffffffffffffffffffffffffffffffffff0219169055505060019150610e78565b5b5092915050565b602060405190810160405280600081525090565b815481835581811511610eba57818360005260206000209182019101610eb99190610ebf565b5b505050565b610ee191905b80821115610edd576000816000905550600101610ec5565b5090565b905600a165627a7a723058209dfef6fb2d5cba84fe832e8af1b103cbee86534ff4e6e0a1c5847132da5afdc90029",
  "source": "pragma solidity ^0.4.17;\r\n\r\nimport \"./Factory.sol\";\r\nimport \"./ProcedureTable.sol\";\r\n\r\ncontract Kernel is Factory {\r\n    event KernelLog(string message);\r\n    using ProcedureTable for ProcedureTable.Self;\r\n    ProcedureTable.Self procedures;\r\n\r\n    function createProcedure(bytes32 name, bytes oCode) public returns (uint8 err, address procedureAddress) {\r\n        // Check whether the first byte is null and set err to 1 if so\r\n        if (name == 0) {\r\n            err = 1;\r\n            return;\r\n        }\r\n\r\n        // Check whether the address exists\r\n        bool exist = procedures.contains(name);\r\n        if (exist) {\r\n            err = 3;\r\n            return;\r\n        }\r\n\r\n        procedureAddress = create(oCode);\r\n        procedures.insert(name, procedureAddress);\r\n    }\r\n\r\n    function deleteProcedure(bytes32 name) public returns (uint8 err, address procedureAddress) {\r\n        // Check whether the first byte is null and set err to 1 if so\r\n        if (name[0] == 0) {\r\n            err = 1;\r\n            return;\r\n        }\r\n\r\n        procedureAddress = procedures.get(name);\r\n        bool success = procedures.remove(name);\r\n\r\n        // Check whether the address exists\r\n        if (!success) {err = 2;}\r\n    }\r\n\r\n    function listProcedures() public view returns (bytes32[]) {\r\n        return procedures.keys;\r\n    }\r\n\r\n    function getProcedure(bytes32 name) public view returns (address) {\r\n        return procedures.get(name);\r\n    }\r\n\r\n    function executeProcedure(bytes32 name, string fselector, bytes payload) public returns (uint8 err, uint256 retVal) {\r\n        // Check whether the first byte is null and set err to 1 if so\r\n        if (name[0] == 0) {\r\n            err = 1;\r\n            return;\r\n        }\r\n        // Check whether the address exists\r\n        bool exist = procedures.contains(name);\r\n        if (!exist) {\r\n            err = 3;\r\n            return;\r\n        }\r\n\r\n        address procedureAddress = procedures.get(name);\r\n        bool status = false;\r\n        assembly {\r\n            // Retrieve the address of new available memory from address 0x40\r\n            let n :=  mload(0x40)\r\n            // Replace the value of 0x40 with the next new available memory,\r\n            // after the 4 bytes we will use to store the keccak hash.\r\n            mstore(0x40,add(n,32))\r\n            // Take the keccak256 hash of that string, store at location n\r\n            // mstore\r\n            // Argument #1: The address (n) calculated above, to store the\r\n            //    hash.\r\n            // Argument #2: The hash, calculted as follows:\r\n            //   keccack256\r\n            //   Argument #1: The location of the fselector string (which\r\n            //     is simply the name of the variable) with an added offset\r\n            //     of 0x20, as the first 0x20 is reserved for the length of\r\n            //     the string.\r\n            //   Argument #2: The length of the string, which is loaded from\r\n            //     the first 0x20 of the string.\r\n            mstore(n,keccak256(add(fselector,0x20),mload(fselector)))\r\n\r\n            // The input starts at where we stored the hash (n)\r\n            let ins := n\r\n            // Currently that is only the function selector hash, which is 4\r\n            // bytes long.\r\n            let inl := 0x4\r\n            // TODO: Allocate a new area of memory into which to write the\r\n            // return data. This will depend on the size of the return type.\r\n            let outs := 0x60\r\n            // There is no return value, therefore it's length is 0 bytes long\r\n            let outl := 0\r\n\r\n            status := delegatecall(sub(gas,5000),procedureAddress,ins,inl,outs,outl)\r\n\r\n        }\r\n        if (!status) {\r\n            err = 4;\r\n        }\r\n    }\r\n}",
  "sourcePath": "/mnt/d/jakedoc/Projects/beakeros/contracts/Kernel.sol",
  "compiler": {
    "name": "solc",
    "version": "0.4.19+commit.c4cbbb05.Emscripten.clang"
  },
  "schemaVersion": "1.0.1",
  "updatedAt": "2018-03-20T11:55:40.306Z"
}