{
  "contractName": "Multiply",
  "abi": [
    {
      "constant": true,
      "inputs": [
        {
          "name": "a",
          "type": "uint256"
        },
        {
          "name": "b",
          "type": "uint256"
        }
      ],
      "name": "multiply",
      "outputs": [
        {
          "name": "",
          "type": "uint256"
        }
      ],
      "payable": false,
      "stateMutability": "pure",
      "type": "function"
    }
  ],
  "bytecode": "0x6060604052341561000f57600080fd5b60ba8061001d6000396000f300606060405260043610603f576000357c0100000000000000000000000000000000000000000000000000000000900463ffffffff168063165c4a16146044575b600080fd5b3415604e57600080fd5b606b60048080359060200190919080359060200190919050506081565b6040518082815260200191505060405180910390f35b60008183029050929150505600a165627a7a723058207b43c682db0ca4e76423e1dc90c3a38c92544935065f905538b0d56e1906e7130029",
  "source": "pragma solidity ^0.4.17;\r\n\r\ncontract Multiply {\r\n    function multiply(uint a, uint b) pure public returns (uint256) {\r\n        return a * b;\r\n    }\r\n}",
  "sourcePath": "/mnt/c/Users/Raketa/Documents/Repos/lab/contracts/test/valid/Multiply.sol",
  "compiler": {
    "name": "solc",
    "version": "0.4.19+commit.c4cbbb05.Emscripten.clang"
  },
  "schemaVersion": "1.0.1",
  "updatedAt": "2018-03-12T17:25:09.970Z"
}