{
  "contractName": "Simple",
  "abi": [
    {
      "constant": false,
      "inputs": [],
      "name": "A",
      "outputs": [],
      "payable": false,
      "stateMutability": "nonpayable",
      "type": "function"
    },
    {
      "constant": false,
      "inputs": [],
      "name": "B",
      "outputs": [],
      "payable": false,
      "stateMutability": "nonpayable",
      "type": "function"
    },
    {
      "constant": false,
      "inputs": [
        {
          "name": "a",
          "type": "uint256"
        }
      ],
      "name": "C",
      "outputs": [],
      "payable": false,
      "stateMutability": "nonpayable",
      "type": "function"
    }
  ],
  "bytecode": "0x6060604052341561000f57600080fd5b60d18061001d6000396000f3006060604052600436106053576000357c0100000000000000000000000000000000000000000000000000000000900463ffffffff16806332e7c5bf1460585780636e9ed8cf14606a578063f446c1d014608a575b600080fd5b3415606257600080fd5b6068609c565b005b3415607457600080fd5b6088600480803590602001909190505060a0565b005b3415609457600080fd5b609a60a3565b005b6000ff5b50565b5600a165627a7a72305820febee502df0d733da371808f222216fc890d0f9205318469eedbaabab720875d0029",
  "source": "pragma solidity ^0.4.17;\r\n\r\ncontract Simple {\r\n    function A() public {\r\n\r\n    }\r\n\r\n    function B() public {\r\n        suicide(0);\r\n    }\r\n\r\n    function C(uint256 a) {\r\n\r\n    }\r\n\r\n}",
  "sourcePath": "/mnt/c/Users/Raketa/Documents/Repos/lab/contracts/test/invalid/Simple.sol",
  "compiler": {
    "name": "solc",
    "version": "0.4.19+commit.c4cbbb05.Emscripten.clang"
  },
  "schemaVersion": "1.0.1",
  "updatedAt": "2018-03-12T17:35:03.798Z"
}