{
  "contractName": "Suicide",
  "abi": [
    {
      "constant": false,
      "inputs": [
        {
          "name": "a",
          "type": "address"
        }
      ],
      "name": "foo",
      "outputs": [],
      "payable": false,
      "stateMutability": "nonpayable",
      "type": "function"
    }
  ],
  "bytecode": "0x6060604052341561000f57600080fd5b60bf8061001d6000396000f300606060405260043610603f576000357c0100000000000000000000000000000000000000000000000000000000900463ffffffff168063fdf80bda146044575b600080fd5b3415604e57600080fd5b6078600480803573ffffffffffffffffffffffffffffffffffffffff16906020019091905050607a565b005b8073ffffffffffffffffffffffffffffffffffffffff16ff00a165627a7a72305820af980970e948173c78be9bfc6c929f61778489f1d4ea0447c66a575017534fea0029",
  "source": "pragma solidity ^0.4.17;\n\ncontract Suicide {\n    function foo(address a) public {\n        selfdestruct(a);\n    }\n}\n",
  "sourcePath": "/mnt/c/Users/Raketa/Documents/Repos/lab/contracts/test/invalid/Suicide.sol",
  "compiler": {
    "name": "solc",
    "version": "0.4.19+commit.c4cbbb05.Emscripten.clang"
  },
  "schemaVersion": "1.0.1",
  "updatedAt": "2018-03-12T17:35:03.798Z"
}