{
  "contractName": "Suicide",
  "abi": [
    {
      "constant": false,
      "inputs": [
        {
          "name": "a",
          "type": "address"
        }
      ],
      "name": "foo",
      "outputs": [],
      "payable": false,
      "stateMutability": "nonpayable",
      "type": "function"
    }
  ],
  "bytecode": "0x6060604052341561000f57600080fd5b60bf8061001d6000396000f300606060405260043610603f576000357c0100000000000000000000000000000000000000000000000000000000900463ffffffff168063fdf80bda146044575b600080fd5b3415604e57600080fd5b6078600480803573ffffffffffffffffffffffffffffffffffffffff16906020019091905050607a565b005b8073ffffffffffffffffffffffffffffffffffffffff16ff00a165627a7a723058203f367ac1bdbf50f7dd02d6491dd636f485ad6db03c923d0138a4c1f6b3efc0480029",
  "source": "pragma solidity ^0.4.17;\n\ncontract Suicide {\n    function foo(address a) public {\n        selfdestruct(a);\n    }\n}\n",
  "sourcePath": "/mnt/d/jakedoc/Projects/beakeros/contracts/test/invalid/Suicide.sol",
  "compiler": {
    "name": "solc",
    "version": "0.4.19+commit.c4cbbb05.Emscripten.clang"
  },
  "schemaVersion": "1.0.1",
  "updatedAt": "2018-03-20T11:55:40.315Z"
}